{
  "_format": "hh-sol-artifact-1",
  "contractName": "CroakStaking",
  "sourceName": "contracts/CroakStaking.sol",
  "abi": [
    {
      "inputs": [
        {
          "internalType": "address",
          "name": "_croakToken",
          "type": "address"
        }
      ],
      "stateMutability": "nonpayable",
      "type": "constructor"
    },
    {
      "anonymous": false,
      "inputs": [
        {
          "indexed": true,
          "internalType": "address",
          "name": "previousOwner",
          "type": "address"
        },
        {
          "indexed": true,
          "internalType": "address",
          "name": "newOwner",
          "type": "address"
        }
      ],
      "name": "OwnershipTransferred",
      "type": "event"
    },
    {
      "anonymous": false,
      "inputs": [
        {
          "indexed": true,
          "internalType": "address",
          "name": "user",
          "type": "address"
        },
        {
          "indexed": false,
          "internalType": "uint256",
          "name": "amount",
          "type": "uint256"
        }
      ],
      "name": "Staked",
      "type": "event"
    },
    {
      "anonymous": false,
      "inputs": [
        {
          "indexed": true,
          "internalType": "address",
          "name": "user",
          "type": "address"
        },
        {
          "indexed": false,
          "internalType": "uint256",
          "name": "amount",
          "type": "uint256"
        },
        {
          "indexed": false,
          "internalType": "uint256",
          "name": "reward",
          "type": "uint256"
        }
      ],
      "name": "Unstaked",
      "type": "event"
    },
    {
      "inputs": [],
      "name": "croakToken",
      "outputs": [
        {
          "internalType": "contract IERC20",
          "name": "",
          "type": "address"
        }
      ],
      "stateMutability": "view",
      "type": "function"
    },
    {
      "inputs": [
        {
          "internalType": "address",
          "name": "user",
          "type": "address"
        }
      ],
      "name": "getReward",
      "outputs": [
        {
          "internalType": "uint256",
          "name": "",
          "type": "uint256"
        }
      ],
      "stateMutability": "view",
      "type": "function"
    },
    {
      "inputs": [
        {
          "internalType": "address",
          "name": "user",
          "type": "address"
        }
      ],
      "name": "getStake",
      "outputs": [
        {
          "internalType": "uint256",
          "name": "",
          "type": "uint256"
        },
        {
          "internalType": "uint256",
          "name": "",
          "type": "uint256"
        }
      ],
      "stateMutability": "view",
      "type": "function"
    },
    {
      "inputs": [],
      "name": "getTopStakers",
      "outputs": [
        {
          "internalType": "address[]",
          "name": "",
          "type": "address[]"
        }
      ],
      "stateMutability": "view",
      "type": "function"
    },
    {
      "inputs": [],
      "name": "owner",
      "outputs": [
        {
          "internalType": "address",
          "name": "",
          "type": "address"
        }
      ],
      "stateMutability": "view",
      "type": "function"
    },
    {
      "inputs": [],
      "name": "renounceOwnership",
      "outputs": [],
      "stateMutability": "nonpayable",
      "type": "function"
    },
    {
      "inputs": [],
      "name": "rewardRate",
      "outputs": [
        {
          "internalType": "uint256",
          "name": "",
          "type": "uint256"
        }
      ],
      "stateMutability": "view",
      "type": "function"
    },
    {
      "inputs": [
        {
          "internalType": "uint256",
          "name": "_rate",
          "type": "uint256"
        }
      ],
      "name": "setRewardRate",
      "outputs": [],
      "stateMutability": "nonpayable",
      "type": "function"
    },
    {
      "inputs": [
        {
          "internalType": "uint256",
          "name": "amount",
          "type": "uint256"
        }
      ],
      "name": "stake",
      "outputs": [],
      "stateMutability": "nonpayable",
      "type": "function"
    },
    {
      "inputs": [
        {
          "internalType": "uint256",
          "name": "",
          "type": "uint256"
        }
      ],
      "name": "stakers",
      "outputs": [
        {
          "internalType": "address",
          "name": "",
          "type": "address"
        }
      ],
      "stateMutability": "view",
      "type": "function"
    },
    {
      "inputs": [
        {
          "internalType": "address",
          "name": "",
          "type": "address"
        }
      ],
      "name": "stakes",
      "outputs": [
        {
          "internalType": "uint256",
          "name": "amount",
          "type": "uint256"
        },
        {
          "internalType": "uint256",
          "name": "timestamp",
          "type": "uint256"
        }
      ],
      "stateMutability": "view",
      "type": "function"
    },
    {
      "inputs": [
        {
          "internalType": "address",
          "name": "newOwner",
          "type": "address"
        }
      ],
      "name": "transferOwnership",
      "outputs": [],
      "stateMutability": "nonpayable",
      "type": "function"
    },
    {
      "inputs": [],
      "name": "unstake",
      "outputs": [],
      "stateMutability": "nonpayable",
      "type": "function"
    }
  ],
  "bytecode": "0x608060405260056004553480156200001657600080fd5b50604051620016f3380380620016f383398181016040528101906200003c9190620001da565b6200005c62000050620000a460201b60201c565b620000ac60201b60201c565b80600160006101000a81548173ffffffffffffffffffffffffffffffffffffffff021916908373ffffffffffffffffffffffffffffffffffffffff160217905550506200020c565b600033905090565b60008060009054906101000a900473ffffffffffffffffffffffffffffffffffffffff169050816000806101000a81548173ffffffffffffffffffffffffffffffffffffffff021916908373ffffffffffffffffffffffffffffffffffffffff1602179055508173ffffffffffffffffffffffffffffffffffffffff168173ffffffffffffffffffffffffffffffffffffffff167f8be0079c531659141344cd1fd0a4f28419497f9722a3daafe3b4186f6b6457e060405160405180910390a35050565b600080fd5b600073ffffffffffffffffffffffffffffffffffffffff82169050919050565b6000620001a28262000175565b9050919050565b620001b48162000195565b8114620001c057600080fd5b50565b600081519050620001d481620001a9565b92915050565b600060208284031215620001f357620001f262000170565b5b60006200020384828501620001c3565b91505092915050565b6114d7806200021c6000396000f3fe608060405234801561001057600080fd5b50600436106100cf5760003560e01c80637b0a47ee1161008c578063a694fc3a11610066578063a694fc3a146101de578063c00007b0146101fa578063f2fde38b1461022a578063fd5e6dd114610246576100cf565b80637b0a47ee146101865780638da5cb5b146101a45780639e447fc6146101c2576100cf565b806316934fc4146100d457806329fa1bdc146101055780632def66201461012357806370bb9a251461012d578063715018a61461014b5780637a76646014610155575b600080fd5b6100ee60048036038101906100e99190610de9565b610276565b6040516100fc929190610e2f565b60405180910390f35b61010d61029a565b60405161011a9190610eb7565b60405180910390f35b61012b6102c0565b005b610135610508565b6040516101429190610f90565b60405180910390f35b610153610596565b005b61016f600480360381019061016a9190610de9565b6105aa565b60405161017d929190610e2f565b60405180910390f35b61018e610693565b60405161019b9190610fb2565b60405180910390f35b6101ac610699565b6040516101b99190610fdc565b60405180910390f35b6101dc60048036038101906101d79190611023565b6106c2565b005b6101f860048036038101906101f39190611023565b6106d4565b005b610214600480360381019061020f9190610de9565b610ab1565b6040516102219190610fb2565b60405180910390f35b610244600480360381019061023f9190610de9565b610b7a565b005b610260600480360381019061025b9190611023565b610bfd565b60405161026d9190610fdc565b60405180910390f35b60026020528060005260406000206000915090508060000154908060010154905082565b600160009054906101000a900473ffffffffffffffffffffffffffffffffffffffff1681565b6000600260003373ffffffffffffffffffffffffffffffffffffffff1673ffffffffffffffffffffffffffffffffffffffff1681526020019081526020016000206040518060400160405290816000820154815260200160018201548152505090506000816000015111610369576040517f08c379a0000000000000000000000000000000000000000000000000000000008152600401610360906110ad565b60405180910390fd5b600081602001514261037b91906110fc565b9050600063bbf81e008260045485600001516103979190611130565b6103a19190611130565b6103ab91906111a1565b9050600260003373ffffffffffffffffffffffffffffffffffffffff1673ffffffffffffffffffffffffffffffffffffffff16815260200190815260200160002060008082016000905560018201600090555050600160009054906101000a900473ffffffffffffffffffffffffffffffffffffffff1673ffffffffffffffffffffffffffffffffffffffff1663a9059cbb3383866000015161044e91906111d2565b6040518363ffffffff1660e01b815260040161046b929190611206565b6020604051808303816000875af115801561048a573d6000803e3d6000fd5b505050506040513d601f19601f820116820180604052508101906104ae9190611267565b503373ffffffffffffffffffffffffffffffffffffffff167f7fc4727e062e336010f2c282598ef5f14facb3de68cf8195c2f23e1454b2b74e8460000151836040516104fb929190610e2f565b60405180910390a2505050565b6060600580548060200260200160405190810160405280929190818152602001828054801561058c57602002820191906000526020600020905b8160009054906101000a900473ffffffffffffffffffffffffffffffffffffffff1673ffffffffffffffffffffffffffffffffffffffff1681526020019060010190808311610542575b5050505050905090565b61059e610c3c565b6105a86000610cba565b565b6000806000600260008573ffffffffffffffffffffffffffffffffffffffff1673ffffffffffffffffffffffffffffffffffffffff1681526020019081526020016000206000015403610603576000809150915061068e565b600260008473ffffffffffffffffffffffffffffffffffffffff1673ffffffffffffffffffffffffffffffffffffffff16815260200190815260200160002060000154600260008573ffffffffffffffffffffffffffffffffffffffff1673ffffffffffffffffffffffffffffffffffffffff16815260200190815260200160002060010154915091505b915091565b60045481565b60008060009054906101000a900473ffffffffffffffffffffffffffffffffffffffff16905090565b6106ca610c3c565b8060048190555050565b60008111610717576040517f08c379a000000000000000000000000000000000000000000000000000000000815260040161070e906112e0565b60405180910390fd5b600160009054906101000a900473ffffffffffffffffffffffffffffffffffffffff1673ffffffffffffffffffffffffffffffffffffffff166323b872dd3330846040518463ffffffff1660e01b815260040161077693929190611300565b6020604051808303816000875af1158015610795573d6000803e3d6000fd5b505050506040513d601f19601f820116820180604052508101906107b99190611267565b6107f8576040517f08c379a00000000000000000000000000000000000000000000000000000000081526004016107ef90611383565b60405180910390fd5b6000600260003373ffffffffffffffffffffffffffffffffffffffff1673ffffffffffffffffffffffffffffffffffffffff16815260200190815260200160002060000154036109bf57604051806040016040528082815260200142815250600260003373ffffffffffffffffffffffffffffffffffffffff1673ffffffffffffffffffffffffffffffffffffffff1681526020019081526020016000206000820151816000015560208201518160010155905050600360003373ffffffffffffffffffffffffffffffffffffffff1673ffffffffffffffffffffffffffffffffffffffff16815260200190815260200160002060009054906101000a900460ff166109ba576005339080600181540180825580915050600190039060005260206000200160009091909190916101000a81548173ffffffffffffffffffffffffffffffffffffffff021916908373ffffffffffffffffffffffffffffffffffffffff1602179055506001600360003373ffffffffffffffffffffffffffffffffffffffff1673ffffffffffffffffffffffffffffffffffffffff16815260200190815260200160002060006101000a81548160ff0219169083151502179055505b610a60565b80600260003373ffffffffffffffffffffffffffffffffffffffff1673ffffffffffffffffffffffffffffffffffffffff1681526020019081526020016000206000016000828254610a1191906111d2565b9250508190555042600260003373ffffffffffffffffffffffffffffffffffffffff1673ffffffffffffffffffffffffffffffffffffffff168152602001908152602001600020600101819055505b3373ffffffffffffffffffffffffffffffffffffffff167f9e71bc8eea02a63969f509818f2dafb9254532904319f9dbda79b67bd34a5f3d82604051610aa69190610fb2565b60405180910390a250565b600080600260008473ffffffffffffffffffffffffffffffffffffffff1673ffffffffffffffffffffffffffffffffffffffff1681526020019081526020016000206040518060400160405290816000820154815260200160018201548152505090506000816000015103610b2a576000915050610b75565b6000816020015142610b3c91906110fc565b9050600063bbf81e00826004548560000151610b589190611130565b610b629190611130565b610b6c91906111a1565b90508093505050505b919050565b610b82610c3c565b600073ffffffffffffffffffffffffffffffffffffffff168173ffffffffffffffffffffffffffffffffffffffff1603610bf1576040517f08c379a0000000000000000000000000000000000000000000000000000000008152600401610be890611415565b60405180910390fd5b610bfa81610cba565b50565b60058181548110610c0d57600080fd5b906000526020600020016000915054906101000a900473ffffffffffffffffffffffffffffffffffffffff1681565b610c44610d7e565b73ffffffffffffffffffffffffffffffffffffffff16610c62610699565b73ffffffffffffffffffffffffffffffffffffffff1614610cb8576040517f08c379a0000000000000000000000000000000000000000000000000000000008152600401610caf90611481565b60405180910390fd5b565b60008060009054906101000a900473ffffffffffffffffffffffffffffffffffffffff169050816000806101000a81548173ffffffffffffffffffffffffffffffffffffffff021916908373ffffffffffffffffffffffffffffffffffffffff1602179055508173ffffffffffffffffffffffffffffffffffffffff168173ffffffffffffffffffffffffffffffffffffffff167f8be0079c531659141344cd1fd0a4f28419497f9722a3daafe3b4186f6b6457e060405160405180910390a35050565b600033905090565b600080fd5b600073ffffffffffffffffffffffffffffffffffffffff82169050919050565b6000610db682610d8b565b9050919050565b610dc681610dab565b8114610dd157600080fd5b50565b600081359050610de381610dbd565b92915050565b600060208284031215610dff57610dfe610d86565b5b6000610e0d84828501610dd4565b91505092915050565b6000819050919050565b610e2981610e16565b82525050565b6000604082019050610e446000830185610e20565b610e516020830184610e20565b9392505050565b6000819050919050565b6000610e7d610e78610e7384610d8b565b610e58565b610d8b565b9050919050565b6000610e8f82610e62565b9050919050565b6000610ea182610e84565b9050919050565b610eb181610e96565b82525050565b6000602082019050610ecc6000830184610ea8565b92915050565b600081519050919050565b600082825260208201905092915050565b6000819050602082019050919050565b610f0781610dab565b82525050565b6000610f198383610efe565b60208301905092915050565b6000602082019050919050565b6000610f3d82610ed2565b610f478185610edd565b9350610f5283610eee565b8060005b83811015610f83578151610f6a8882610f0d565b9750610f7583610f25565b925050600181019050610f56565b5085935050505092915050565b60006020820190508181036000830152610faa8184610f32565b905092915050565b6000602082019050610fc76000830184610e20565b92915050565b610fd681610dab565b82525050565b6000602082019050610ff16000830184610fcd565b92915050565b61100081610e16565b811461100b57600080fd5b50565b60008135905061101d81610ff7565b92915050565b60006020828403121561103957611038610d86565b5b60006110478482850161100e565b91505092915050565b600082825260208201905092915050565b7f4e6f20616374697665207374616b650000000000000000000000000000000000600082015250565b6000611097600f83611050565b91506110a282611061565b602082019050919050565b600060208201905081810360008301526110c68161108a565b9050919050565b7f4e487b7100000000000000000000000000000000000000000000000000000000600052601160045260246000fd5b600061110782610e16565b915061111283610e16565b925082820390508181111561112a576111296110cd565b5b92915050565b600061113b82610e16565b915061114683610e16565b925082820261115481610e16565b9150828204841483151761116b5761116a6110cd565b5b5092915050565b7f4e487b7100000000000000000000000000000000000000000000000000000000600052601260045260246000fd5b60006111ac82610e16565b91506111b783610e16565b9250826111c7576111c6611172565b5b828204905092915050565b60006111dd82610e16565b91506111e883610e16565b9250828201905080821115611200576111ff6110cd565b5b92915050565b600060408201905061121b6000830185610fcd565b6112286020830184610e20565b9392505050565b60008115159050919050565b6112448161122f565b811461124f57600080fd5b50565b6000815190506112618161123b565b92915050565b60006020828403121561127d5761127c610d86565b5b600061128b84828501611252565b91505092915050565b7f416d6f756e74206d7573742062652067726561746572207468616e2030000000600082015250565b60006112ca601d83611050565b91506112d582611294565b602082019050919050565b600060208201905081810360008301526112f9816112bd565b9050919050565b60006060820190506113156000830186610fcd565b6113226020830185610fcd565b61132f6040830184610e20565b949350505050565b7f5472616e73666572206661696c65640000000000000000000000000000000000600082015250565b600061136d600f83611050565b915061137882611337565b602082019050919050565b6000602082019050818103600083015261139c81611360565b9050919050565b7f4f776e61626c653a206e6577206f776e657220697320746865207a65726f206160008201527f6464726573730000000000000000000000000000000000000000000000000000602082015250565b60006113ff602683611050565b915061140a826113a3565b604082019050919050565b6000602082019050818103600083015261142e816113f2565b9050919050565b7f4f776e61626c653a2063616c6c6572206973206e6f7420746865206f776e6572600082015250565b600061146b602083611050565b915061147682611435565b602082019050919050565b6000602082019050818103600083015261149a8161145e565b905091905056fea2646970667358221220907850808510c65fee1ba41ea98073461353b2f702c4b788fcc1857e8bfecadd64736f6c63430008130033",
  "linkReferences": {},
  "deployedLinkReferences": {}
}