{
  "_format": "hh-sol-artifact-1",
  "contractName": "CroakToken",
  "sourceName": "contracts/CroakToken.sol",
  "abi": [
    {
      "inputs": [],
      "stateMutability": "nonpayable",
      "type": "constructor"
    },
    {
      "anonymous": false,
      "inputs": [
        {
          "indexed": true,
          "internalType": "address",
          "name": "owner",
          "type": "address"
        },
        {
          "indexed": true,
          "internalType": "address",
          "name": "spender",
          "type": "address"
        },
        {
          "indexed": false,
          "internalType": "uint256",
          "name": "value",
          "type": "uint256"
        }
      ],
      "name": "Approval",
      "type": "event"
    },
    {
      "anonymous": false,
      "inputs": [
        {
          "indexed": true,
          "internalType": "address",
          "name": "previousOwner",
          "type": "address"
        },
        {
          "indexed": true,
          "internalType": "address",
          "name": "newOwner",
          "type": "address"
        }
      ],
      "name": "OwnershipTransferred",
      "type": "event"
    },
    {
      "anonymous": false,
      "inputs": [
        {
          "indexed": true,
          "internalType": "address",
          "name": "from",
          "type": "address"
        },
        {
          "indexed": true,
          "internalType": "address",
          "name": "to",
          "type": "address"
        },
        {
          "indexed": false,
          "internalType": "uint256",
          "name": "value",
          "type": "uint256"
        }
      ],
      "name": "Transfer",
      "type": "event"
    },
    {
      "inputs": [],
      "name": "MAX_SUPPLY",
      "outputs": [
        {
          "internalType": "uint256",
          "name": "",
          "type": "uint256"
        }
      ],
      "stateMutability": "view",
      "type": "function"
    },
    {
      "inputs": [
        {
          "internalType": "address",
          "name": "owner",
          "type": "address"
        },
        {
          "internalType": "address",
          "name": "spender",
          "type": "address"
        }
      ],
      "name": "allowance",
      "outputs": [
        {
          "internalType": "uint256",
          "name": "",
          "type": "uint256"
        }
      ],
      "stateMutability": "view",
      "type": "function"
    },
    {
      "inputs": [
        {
          "internalType": "address",
          "name": "spender",
          "type": "address"
        },
        {
          "internalType": "uint256",
          "name": "amount",
          "type": "uint256"
        }
      ],
      "name": "approve",
      "outputs": [
        {
          "internalType": "bool",
          "name": "",
          "type": "bool"
        }
      ],
      "stateMutability": "nonpayable",
      "type": "function"
    },
    {
      "inputs": [
        {
          "internalType": "address",
          "name": "account",
          "type": "address"
        }
      ],
      "name": "balanceOf",
      "outputs": [
        {
          "internalType": "uint256",
          "name": "",
          "type": "uint256"
        }
      ],
      "stateMutability": "view",
      "type": "function"
    },
    {
      "inputs": [
        {
          "internalType": "uint256",
          "name": "amount",
          "type": "uint256"
        }
      ],
      "name": "burn",
      "outputs": [],
      "stateMutability": "nonpayable",
      "type": "function"
    },
    {
      "inputs": [],
      "name": "decimals",
      "outputs": [
        {
          "internalType": "uint8",
          "name": "",
          "type": "uint8"
        }
      ],
      "stateMutability": "view",
      "type": "function"
    },
    {
      "inputs": [
        {
          "internalType": "address",
          "name": "spender",
          "type": "address"
        },
        {
          "internalType": "uint256",
          "name": "subtractedValue",
          "type": "uint256"
        }
      ],
      "name": "decreaseAllowance",
      "outputs": [
        {
          "internalType": "bool",
          "name": "",
          "type": "bool"
        }
      ],
      "stateMutability": "nonpayable",
      "type": "function"
    },
    {
      "inputs": [
        {
          "internalType": "address",
          "name": "spender",
          "type": "address"
        },
        {
          "internalType": "uint256",
          "name": "addedValue",
          "type": "uint256"
        }
      ],
      "name": "increaseAllowance",
      "outputs": [
        {
          "internalType": "bool",
          "name": "",
          "type": "bool"
        }
      ],
      "stateMutability": "nonpayable",
      "type": "function"
    },
    {
      "inputs": [
        {
          "internalType": "address",
          "name": "to",
          "type": "address"
        },
        {
          "internalType": "uint256",
          "name": "amount",
          "type": "uint256"
        }
      ],
      "name": "mint",
      "outputs": [],
      "stateMutability": "nonpayable",
      "type": "function"
    },
    {
      "inputs": [],
      "name": "name",
      "outputs": [
        {
          "internalType": "string",
          "name": "",
          "type": "string"
        }
      ],
      "stateMutability": "view",
      "type": "function"
    },
    {
      "inputs": [],
      "name": "owner",
      "outputs": [
        {
          "internalType": "address",
          "name": "",
          "type": "address"
        }
      ],
      "stateMutability": "view",
      "type": "function"
    },
    {
      "inputs": [],
      "name": "renounceOwnership",
      "outputs": [],
      "stateMutability": "nonpayable",
      "type": "function"
    },
    {
      "inputs": [],
      "name": "symbol",
      "outputs": [
        {
          "internalType": "string",
          "name": "",
          "type": "string"
        }
      ],
      "stateMutability": "view",
      "type": "function"
    },
    {
      "inputs": [],
      "name": "totalSupply",
      "outputs": [
        {
          "internalType": "uint256",
          "name": "",
          "type": "uint256"
        }
      ],
      "stateMutability": "view",
      "type": "function"
    },
    {
      "inputs": [
        {
          "internalType": "address",
          "name": "to",
          "type": "address"
        },
        {
          "internalType": "uint256",
          "name": "amount",
          "type": "uint256"
        }
      ],
      "name": "transfer",
      "outputs": [
        {
          "internalType": "bool",
          "name": "",
          "type": "bool"
        }
      ],
      "stateMutability": "nonpayable",
      "type": "function"
    },
    {
      "inputs": [
        {
          "internalType": "address",
          "name": "from",
          "type": "address"
        },
        {
          "internalType": "address",
          "name": "to",
          "type": "address"
        },
        {
          "internalType": "uint256",
          "name": "amount",
          "type": "uint256"
        }
      ],
      "name": "transferFrom",
      "outputs": [
        {
          "internalType": "bool",
          "name": "",
          "type": "bool"
        }
      ],
      "stateMutability": "nonpayable",
      "type": "function"
    },
    {
      "inputs": [
        {
          "internalType": "address",
          "name": "newOwner",
          "type": "address"
        }
      ],
      "name": "transferOwnership",
      "outputs": [],
      "stateMutability": "nonpayable",
      "type": "function"
    }
  ],
  "bytecode": "0x60806040523480156200001157600080fd5b506040518060400160405280600b81526020017f43726f616b20546f6b656e0000000000000000000000000000000000000000008152506040518060400160405280600581526020017f43524f414b00000000000000000000000000000000000000000000000000000081525081600390816200008f9190620005a6565b508060049081620000a19190620005a6565b505050620000c4620000b8620000e760201b60201c565b620000ef60201b60201c565b620000e1336a52b7d2dcc80cd2e4000000620001b560201b60201c565b620007a8565b600033905090565b6000600560009054906101000a900473ffffffffffffffffffffffffffffffffffffffff16905081600560006101000a81548173ffffffffffffffffffffffffffffffffffffffff021916908373ffffffffffffffffffffffffffffffffffffffff1602179055508173ffffffffffffffffffffffffffffffffffffffff168173ffffffffffffffffffffffffffffffffffffffff167f8be0079c531659141344cd1fd0a4f28419497f9722a3daafe3b4186f6b6457e060405160405180910390a35050565b600073ffffffffffffffffffffffffffffffffffffffff168273ffffffffffffffffffffffffffffffffffffffff160362000227576040517f08c379a00000000000000000000000000000000000000000000000000000000081526004016200021e90620006ee565b60405180910390fd5b6200023b600083836200032260201b60201c565b80600260008282546200024f91906200073f565b92505081905550806000808473ffffffffffffffffffffffffffffffffffffffff1673ffffffffffffffffffffffffffffffffffffffff168152602001908152602001600020600082825401925050819055508173ffffffffffffffffffffffffffffffffffffffff16600073ffffffffffffffffffffffffffffffffffffffff167fddf252ad1be2c89b69c2b068fc378daa952ba7f163c4a11628f55a4df523b3ef836040516200030291906200078b565b60405180910390a36200031e600083836200032760201b60201c565b5050565b505050565b505050565b600081519050919050565b7f4e487b7100000000000000000000000000000000000000000000000000000000600052604160045260246000fd5b7f4e487b7100000000000000000000000000000000000000000000000000000000600052602260045260246000fd5b60006002820490506001821680620003ae57607f821691505b602082108103620003c457620003c362000366565b5b50919050565b60008190508160005260206000209050919050565b60006020601f8301049050919050565b600082821b905092915050565b6000600883026200042e7fffffffffffffffffffffffffffffffffffffffffffffffffffffffffffffffff82620003ef565b6200043a8683620003ef565b95508019841693508086168417925050509392505050565b6000819050919050565b6000819050919050565b600062000487620004816200047b8462000452565b6200045c565b62000452565b9050919050565b6000819050919050565b620004a38362000466565b620004bb620004b2826200048e565b848454620003fc565b825550505050565b600090565b620004d2620004c3565b620004df81848462000498565b505050565b5b818110156200050757620004fb600082620004c8565b600181019050620004e5565b5050565b601f82111562000556576200052081620003ca565b6200052b84620003df565b810160208510156200053b578190505b620005536200054a85620003df565b830182620004e4565b50505b505050565b600082821c905092915050565b60006200057b600019846008026200055b565b1980831691505092915050565b600062000596838362000568565b9150826002028217905092915050565b620005b1826200032c565b67ffffffffffffffff811115620005cd57620005cc62000337565b5b620005d9825462000395565b620005e68282856200050b565b600060209050601f8311600181146200061e576000841562000609578287015190505b62000615858262000588565b86555062000685565b601f1984166200062e86620003ca565b60005b82811015620006585784890151825560018201915060208501945060208101905062000631565b8683101562000678578489015162000674601f89168262000568565b8355505b6001600288020188555050505b505050505050565b600082825260208201905092915050565b7f45524332303a206d696e7420746f20746865207a65726f206164647265737300600082015250565b6000620006d6601f836200068d565b9150620006e3826200069e565b602082019050919050565b600060208201905081810360008301526200070981620006c7565b9050919050565b7f4e487b7100000000000000000000000000000000000000000000000000000000600052601160045260246000fd5b60006200074c8262000452565b9150620007598362000452565b925082820190508082111562000774576200077362000710565b5b92915050565b620007858162000452565b82525050565b6000602082019050620007a260008301846200077a565b92915050565b611c3680620007b86000396000f3fe608060405234801561001057600080fd5b506004361061010b5760003560e01c806342966c68116100a257806395d89b411161007157806395d89b41146102a8578063a457c2d7146102c6578063a9059cbb146102f6578063dd62ed3e14610326578063f2fde38b146103565761010b565b806342966c681461023457806370a0823114610250578063715018a6146102805780638da5cb5b1461028a5761010b565b8063313ce567116100de578063313ce567146101ac57806332cb6b0c146101ca57806339509351146101e857806340c10f19146102185761010b565b806306fdde0314610110578063095ea7b31461012e57806318160ddd1461015e57806323b872dd1461017c575b600080fd5b610118610372565b60405161012591906111c2565b60405180910390f35b6101486004803603810190610143919061127d565b610404565b60405161015591906112d8565b60405180910390f35b610166610427565b6040516101739190611302565b60405180910390f35b6101966004803603810190610191919061131d565b610431565b6040516101a391906112d8565b60405180910390f35b6101b4610460565b6040516101c1919061138c565b60405180910390f35b6101d2610469565b6040516101df9190611302565b60405180910390f35b61020260048036038101906101fd919061127d565b610478565b60405161020f91906112d8565b60405180910390f35b610232600480360381019061022d919061127d565b6104af565b005b61024e600480360381019061024991906113a7565b610525565b005b61026a600480360381019061026591906113d4565b610532565b6040516102779190611302565b60405180910390f35b61028861057a565b005b61029261058e565b60405161029f9190611410565b60405180910390f35b6102b06105b8565b6040516102bd91906111c2565b60405180910390f35b6102e060048036038101906102db919061127d565b61064a565b6040516102ed91906112d8565b60405180910390f35b610310600480360381019061030b919061127d565b6106c1565b60405161031d91906112d8565b60405180910390f35b610340600480360381019061033b919061142b565b6106e4565b60405161034d9190611302565b60405180910390f35b610370600480360381019061036b91906113d4565b61076b565b005b6060600380546103819061149a565b80601f01602080910402602001604051908101604052809291908181526020018280546103ad9061149a565b80156103fa5780601f106103cf576101008083540402835291602001916103fa565b820191906000526020600020905b8154815290600101906020018083116103dd57829003601f168201915b5050505050905090565b60008061040f6107ee565b905061041c8185856107f6565b600191505092915050565b6000600254905090565b60008061043c6107ee565b90506104498582856109bf565b610454858585610a4b565b60019150509392505050565b60006012905090565b6a52b7d2dcc80cd2e400000081565b6000806104836107ee565b90506104a481858561049585896106e4565b61049f91906114fa565b6107f6565b600191505092915050565b6104b7610cc1565b6a52b7d2dcc80cd2e4000000816104cc610427565b6104d691906114fa565b1115610517576040517f08c379a000000000000000000000000000000000000000000000000000000000815260040161050e9061157a565b60405180910390fd5b6105218282610d3f565b5050565b61052f3382610e95565b50565b60008060008373ffffffffffffffffffffffffffffffffffffffff1673ffffffffffffffffffffffffffffffffffffffff168152602001908152602001600020549050919050565b610582610cc1565b61058c6000611062565b565b6000600560009054906101000a900473ffffffffffffffffffffffffffffffffffffffff16905090565b6060600480546105c79061149a565b80601f01602080910402602001604051908101604052809291908181526020018280546105f39061149a565b80156106405780601f1061061557610100808354040283529160200191610640565b820191906000526020600020905b81548152906001019060200180831161062357829003601f168201915b5050505050905090565b6000806106556107ee565b9050600061066382866106e4565b9050838110156106a8576040517f08c379a000000000000000000000000000000000000000000000000000000000815260040161069f9061160c565b60405180910390fd5b6106b582868684036107f6565b60019250505092915050565b6000806106cc6107ee565b90506106d9818585610a4b565b600191505092915050565b6000600160008473ffffffffffffffffffffffffffffffffffffffff1673ffffffffffffffffffffffffffffffffffffffff16815260200190815260200160002060008373ffffffffffffffffffffffffffffffffffffffff1673ffffffffffffffffffffffffffffffffffffffff16815260200190815260200160002054905092915050565b610773610cc1565b600073ffffffffffffffffffffffffffffffffffffffff168173ffffffffffffffffffffffffffffffffffffffff16036107e2576040517f08c379a00000000000000000000000000000000000000000000000000000000081526004016107d99061169e565b60405180910390fd5b6107eb81611062565b50565b600033905090565b600073ffffffffffffffffffffffffffffffffffffffff168373ffffffffffffffffffffffffffffffffffffffff1603610865576040517f08c379a000000000000000000000000000000000000000000000000000000000815260040161085c90611730565b60405180910390fd5b600073ffffffffffffffffffffffffffffffffffffffff168273ffffffffffffffffffffffffffffffffffffffff16036108d4576040517f08c379a00000000000000000000000000000000000000000000000000000000081526004016108cb906117c2565b60405180910390fd5b80600160008573ffffffffffffffffffffffffffffffffffffffff1673ffffffffffffffffffffffffffffffffffffffff16815260200190815260200160002060008473ffffffffffffffffffffffffffffffffffffffff1673ffffffffffffffffffffffffffffffffffffffff168152602001908152602001600020819055508173ffffffffffffffffffffffffffffffffffffffff168373ffffffffffffffffffffffffffffffffffffffff167f8c5be1e5ebec7d5bd14f71427d1e84f3dd0314c0f7b2291e5b200ac8c7c3b925836040516109b29190611302565b60405180910390a3505050565b60006109cb84846106e4565b90507fffffffffffffffffffffffffffffffffffffffffffffffffffffffffffffffff8114610a455781811015610a37576040517f08c379a0000000000000000000000000000000000000000000000000000000008152600401610a2e9061182e565b60405180910390fd5b610a4484848484036107f6565b5b50505050565b600073ffffffffffffffffffffffffffffffffffffffff168373ffffffffffffffffffffffffffffffffffffffff1603610aba576040517f08c379a0000000000000000000000000000000000000000000000000000000008152600401610ab1906118c0565b60405180910390fd5b600073ffffffffffffffffffffffffffffffffffffffff168273ffffffffffffffffffffffffffffffffffffffff1603610b29576040517f08c379a0000000000000000000000000000000000000000000000000000000008152600401610b2090611952565b60405180910390fd5b610b34838383611128565b60008060008573ffffffffffffffffffffffffffffffffffffffff1673ffffffffffffffffffffffffffffffffffffffff16815260200190815260200160002054905081811015610bba576040517f08c379a0000000000000000000000000000000000000000000000000000000008152600401610bb1906119e4565b60405180910390fd5b8181036000808673ffffffffffffffffffffffffffffffffffffffff1673ffffffffffffffffffffffffffffffffffffffff16815260200190815260200160002081905550816000808573ffffffffffffffffffffffffffffffffffffffff1673ffffffffffffffffffffffffffffffffffffffff168152602001908152602001600020600082825401925050819055508273ffffffffffffffffffffffffffffffffffffffff168473ffffffffffffffffffffffffffffffffffffffff167fddf252ad1be2c89b69c2b068fc378daa952ba7f163c4a11628f55a4df523b3ef84604051610ca89190611302565b60405180910390a3610cbb84848461112d565b50505050565b610cc96107ee565b73ffffffffffffffffffffffffffffffffffffffff16610ce761058e565b73ffffffffffffffffffffffffffffffffffffffff1614610d3d576040517f08c379a0000000000000000000000000000000000000000000000000000000008152600401610d3490611a50565b60405180910390fd5b565b600073ffffffffffffffffffffffffffffffffffffffff168273ffffffffffffffffffffffffffffffffffffffff1603610dae576040517f08c379a0000000000000000000000000000000000000000000000000000000008152600401610da590611abc565b60405180910390fd5b610dba60008383611128565b8060026000828254610dcc91906114fa565b92505081905550806000808473ffffffffffffffffffffffffffffffffffffffff1673ffffffffffffffffffffffffffffffffffffffff168152602001908152602001600020600082825401925050819055508173ffffffffffffffffffffffffffffffffffffffff16600073ffffffffffffffffffffffffffffffffffffffff167fddf252ad1be2c89b69c2b068fc378daa952ba7f163c4a11628f55a4df523b3ef83604051610e7d9190611302565b60405180910390a3610e916000838361112d565b5050565b600073ffffffffffffffffffffffffffffffffffffffff168273ffffffffffffffffffffffffffffffffffffffff1603610f04576040517f08c379a0000000000000000000000000000000000000000000000000000000008152600401610efb90611b4e565b60405180910390fd5b610f1082600083611128565b60008060008473ffffffffffffffffffffffffffffffffffffffff1673ffffffffffffffffffffffffffffffffffffffff16815260200190815260200160002054905081811015610f96576040517f08c379a0000000000000000000000000000000000000000000000000000000008152600401610f8d90611be0565b60405180910390fd5b8181036000808573ffffffffffffffffffffffffffffffffffffffff1673ffffffffffffffffffffffffffffffffffffffff1681526020019081526020016000208190555081600260008282540392505081905550600073ffffffffffffffffffffffffffffffffffffffff168373ffffffffffffffffffffffffffffffffffffffff167fddf252ad1be2c89b69c2b068fc378daa952ba7f163c4a11628f55a4df523b3ef846040516110499190611302565b60405180910390a361105d8360008461112d565b505050565b6000600560009054906101000a900473ffffffffffffffffffffffffffffffffffffffff16905081600560006101000a81548173ffffffffffffffffffffffffffffffffffffffff021916908373ffffffffffffffffffffffffffffffffffffffff1602179055508173ffffffffffffffffffffffffffffffffffffffff168173ffffffffffffffffffffffffffffffffffffffff167f8be0079c531659141344cd1fd0a4f28419497f9722a3daafe3b4186f6b6457e060405160405180910390a35050565b505050565b505050565b600081519050919050565b600082825260208201905092915050565b60005b8381101561116c578082015181840152602081019050611151565b60008484015250505050565b6000601f19601f8301169050919050565b600061119482611132565b61119e818561113d565b93506111ae81856020860161114e565b6111b781611178565b840191505092915050565b600060208201905081810360008301526111dc8184611189565b905092915050565b600080fd5b600073ffffffffffffffffffffffffffffffffffffffff82169050919050565b6000611214826111e9565b9050919050565b61122481611209565b811461122f57600080fd5b50565b6000813590506112418161121b565b92915050565b6000819050919050565b61125a81611247565b811461126557600080fd5b50565b60008135905061127781611251565b92915050565b60008060408385031215611294576112936111e4565b5b60006112a285828601611232565b92505060206112b385828601611268565b9150509250929050565b60008115159050919050565b6112d2816112bd565b82525050565b60006020820190506112ed60008301846112c9565b92915050565b6112fc81611247565b82525050565b600060208201905061131760008301846112f3565b92915050565b600080600060608486031215611336576113356111e4565b5b600061134486828701611232565b935050602061135586828701611232565b925050604061136686828701611268565b9150509250925092565b600060ff82169050919050565b61138681611370565b82525050565b60006020820190506113a1600083018461137d565b92915050565b6000602082840312156113bd576113bc6111e4565b5b60006113cb84828501611268565b91505092915050565b6000602082840312156113ea576113e96111e4565b5b60006113f884828501611232565b91505092915050565b61140a81611209565b82525050565b60006020820190506114256000830184611401565b92915050565b60008060408385031215611442576114416111e4565b5b600061145085828601611232565b925050602061146185828601611232565b9150509250929050565b7f4e487b7100000000000000000000000000000000000000000000000000000000600052602260045260246000fd5b600060028204905060018216806114b257607f821691505b6020821081036114c5576114c461146b565b5b50919050565b7f4e487b7100000000000000000000000000000000000000000000000000000000600052601160045260246000fd5b600061150582611247565b915061151083611247565b9250828201905080821115611528576115276114cb565b5b92915050565b7f45786365656473206d617820737570706c790000000000000000000000000000600082015250565b600061156460128361113d565b915061156f8261152e565b602082019050919050565b6000602082019050818103600083015261159381611557565b9050919050565b7f45524332303a2064656372656173656420616c6c6f77616e63652062656c6f7760008201527f207a65726f000000000000000000000000000000000000000000000000000000602082015250565b60006115f660258361113d565b91506116018261159a565b604082019050919050565b60006020820190508181036000830152611625816115e9565b9050919050565b7f4f776e61626c653a206e6577206f776e657220697320746865207a65726f206160008201527f6464726573730000000000000000000000000000000000000000000000000000602082015250565b600061168860268361113d565b91506116938261162c565b604082019050919050565b600060208201905081810360008301526116b78161167b565b9050919050565b7f45524332303a20617070726f76652066726f6d20746865207a65726f2061646460008201527f7265737300000000000000000000000000000000000000000000000000000000602082015250565b600061171a60248361113d565b9150611725826116be565b604082019050919050565b600060208201905081810360008301526117498161170d565b9050919050565b7f45524332303a20617070726f766520746f20746865207a65726f20616464726560008201527f7373000000000000000000000000000000000000000000000000000000000000602082015250565b60006117ac60228361113d565b91506117b782611750565b604082019050919050565b600060208201905081810360008301526117db8161179f565b9050919050565b7f45524332303a20696e73756666696369656e7420616c6c6f77616e6365000000600082015250565b6000611818601d8361113d565b9150611823826117e2565b602082019050919050565b600060208201905081810360008301526118478161180b565b9050919050565b7f45524332303a207472616e736665722066726f6d20746865207a65726f20616460008201527f6472657373000000000000000000000000000000000000000000000000000000602082015250565b60006118aa60258361113d565b91506118b58261184e565b604082019050919050565b600060208201905081810360008301526118d98161189d565b9050919050565b7f45524332303a207472616e7366657220746f20746865207a65726f206164647260008201527f6573730000000000000000000000000000000000000000000000000000000000602082015250565b600061193c60238361113d565b9150611947826118e0565b604082019050919050565b6000602082019050818103600083015261196b8161192f565b9050919050565b7f45524332303a207472616e7366657220616d6f756e742065786365656473206260008201527f616c616e63650000000000000000000000000000000000000000000000000000602082015250565b60006119ce60268361113d565b91506119d982611972565b604082019050919050565b600060208201905081810360008301526119fd816119c1565b9050919050565b7f4f776e61626c653a2063616c6c6572206973206e6f7420746865206f776e6572600082015250565b6000611a3a60208361113d565b9150611a4582611a04565b602082019050919050565b60006020820190508181036000830152611a6981611a2d565b9050919050565b7f45524332303a206d696e7420746f20746865207a65726f206164647265737300600082015250565b6000611aa6601f8361113d565b9150611ab182611a70565b602082019050919050565b60006020820190508181036000830152611ad581611a99565b9050919050565b7f45524332303a206275726e2066726f6d20746865207a65726f2061646472657360008201527f7300000000000000000000000000000000000000000000000000000000000000602082015250565b6000611b3860218361113d565b9150611b4382611adc565b604082019050919050565b60006020820190508181036000830152611b6781611b2b565b9050919050565b7f45524332303a206275726e20616d6f756e7420657863656564732062616c616e60008201527f6365000000000000000000000000000000000000000000000000000000000000602082015250565b6000611bca60228361113d565b9150611bd582611b6e565b604082019050919050565b60006020820190508181036000830152611bf981611bbd565b905091905056fea2646970667358221220b77ca79fbe0381e449f9be3e16f82b329039d4bfe66b64f422c57483c1e4e6de64736f6c63430008130033",
  "linkReferences": {},
  "deployedLinkReferences": {}
}